S01100006C696E655F636F64652E7372656371
S113000033C000004CC000004AC0000048C00000DB
S113001046C0000044C0000042C0000040C00000D0
S11300203EC000003CC000003AC0000038C00000E0
S113003036C0000034C0000032C0000030C00000F0
S11300402EC000002CC000002AC0000028C0000000
S113005026C0000024C0000022C0000020C0000010
S11300601EC000001CC0000011241FBECFEFD8E04A
S1130070DEBFCDBF11E0A0E0B1E0E2E3FFE002C0EB
S113008005900D92A233B107D9F721E0A2E3B1E0C4
S113009001C01D92A834B207E1F735D148C7B0CFEB
S11300A0CF93C82F8A3011F48DE0FADFE0ECF0E052
S11300B0908195FFFDCFC093C600CF910895E0ECE9
S11300C0F0E080818823ECF78091C6000895ECE786
S11300D0F0E090818F70907F982B9083EAE7F0E0B6
S11300E0808180648083808186FDFDCF20917800AB
S11300F030917900822F932F089587BD68BD4130D8
S113010011F4579A01C05798213011F4209A089598
S113011020980895569A559A17BC18BC84B58068DF
S113012084BD84B5806284BD84B5836084BD85B597
S1130130826085BD579A209A0895ECE7F0E08081AB
S113014080648083EAE7F0E0808187688083089593
S11301509093C5008093C40088E18093C10086E039
S11301608093C2000895E0ECF0E080818823ECF7EE
S11301708091C600089583E390E0EADF8EE091E089
S1130180909345018093440180E091E09093430172
S11301908093420159D3BEDFD0CF4F925F926F92CA
S11301A07F928F929F92AF92BF92CF92DF92EF9203
S11301B0FF920F931F93CF93DF93CDB7DEB72C97A6
S11301C00FB6F894DEBF0FBECDBF85E080DF9093FD
S11301D03F0180933E0184E07ADF90933D01809358
S11301E03C0183E074DF90933B0180933A0182E009
S11301F06EDF909339018093380181E068DF90933A
S113020037018093360180E062DF9093350180935B
S1130210340185E05CDF9A83898384E058DF9C8322
S11302208B8383E054DF9E838D8382E050DF988745
S11302308F8381E04CDF9A87898780E048DF9C8741
S11302408B878E010F5F1F4FC12CD12C7601A12CFF
S1130250B12C412C512C3201912C88248394D80147
S1130260ED91FD918D01CF01E93CF1050CF0982C45
S1130270C39754F0DF01A701960137D3460E571EEA
S1130280681E791EAE0EBF1EB8EECB0EB3E0DB1EA9
S1130290E11CF11C20E7C21627E1D206E104F104B7
S11302A0F1F691100AC08091400190914101843C83
S11302B0994074F420E030E00DC0950140E050E036
S11302C0C301B201D5D2209340013093410102C051
S11302D028E833E1822F932F2C960FB6F894DEBFD3
S11302E00FBECDBFDF91CF911F910F91FF90EF9083
S11302F0DF90CF90BF90AF909F908F907F906F9042
S11303005F904F900895CF93DF93CDB7DEB7C05978
S1130310D1400FB6F894DEBF0FBECDBF2CDF0F2E39
S1130320FCE1EF2EF1E0FF2EF02D8E010F5F1F4F49
S11303301ADF8D3631F421E041E064E684E6DDDE47
S1130340F7CF833709F058C085E0C1DE90933F01B1
S113035080933E0184E0BBDE90933D0180933C0199
S113036083E0B5DE90933B0180933A0182E0AFDEF7
S1130370909339018093380181E0A9DE909337018D
S11303808093360180E0A3DE90933501809334019D
S113039004DF9F938F93809135018F938091340173
S11303A08F93809137018F93809136018F93809141
S11303B039018F93809138018F9380913B018F9302
S11303C080913A018F9380913D018F9380913C01FC
S11303D08F9380913F018F9380913E018F93FF9281
S11303E0EF921F930F93E0D2C801AFD20FB6F894E7
S11303F0DEBF0FBECDBF9CCF813309F087C0C12CB7
S1130400D12C7601A12CB12C0F2EF8E22F2E312CF9
S1130410F02D0F2EF0E14F2EF7E25F2E612C712CA0
S1130420F02D0F2EF4E69F2EF02DB7DE8C0108522E
S11304301A40C801AA2797FDA095BA2FC80ED91E45
S1130440EA1EFB1EC801B10100D2C8018A199B092A
S11304505C01AA0CBB1C8A0D9B1D99230CF401960C
S11304605C01B594A794A60EB71EC701B601A301FB
S1130470920120D22A0D3B1D2536310514F024E6C5
S113048030E0C9018C393FEF930714F48CE99FEFF6
S113049099233CF4682F6C5921E041E0892D2DDE2D
S11304A007C021E041E0692D392D381B832F25DE5B
S11304B020913C0130913D0180913E0190913F019A
S11304C0820F931F20913A0130913B01820F931FB9
S11304D02091380130913901820F931F2091360108
S11304E030913701820F931F2091340130913501EF
S11304F0820F931F90933301809332018FEC97E026
S11305000197F1F700C0000058018FCF823309F042
S113051087C0C12CD12C7601A12CB12C0F2EF8E26E
S11305202F2E312CF02D0F2EF0E14F2EF7E25F2EFF
S1130530612C712CF02D0F2EF6E99F2EF02D2DDE5F
S11305408C0108521A40C801AA2797FDA095BA2F1A
S1130550C80ED91EEA1EFB1EC801B10176D1C8011E
S11305608A199B095C01AA0CBB1C8A0D9B1D99234B
S11305700CF401965C01B594A794A60EB71EC701AE
S1130580B601A301920196D12A0D3B1D27393105ED
S113059014F026E930E0C9018A362FEF920714F4EB
S11305A08AE69FEF99233CF4682F6A5621E041E0E4
S11305B0892DA3DD07C021E041E0692D392D381BC9
S11305C0832F9BDD20913C0130913D0180913E01C0
S11305D090913F01820F931F20913A0130913B018A
S11305E0820F931F2091380130913901820F931F9C
S11305F02091360130913701820F931F20913401ED
S113060030913501820F931F90933301809332010F
S11306108FEC97E00197F1F700C0000058018FCFED
S1130620833309F087C0C12CD12C7601A12CB12CC5
S11306300F2EF4E12F2E312CF02D0F2EF0E14F2E42
S1130640F7E25F2E612C712CF02D0F2EF4E69F2E15
S1130650F02DA3DD8C0108521A40C801AA2797FD8A
S1130660A095BA2FC80ED91EEA1EFB1EC801B101FF
S1130670ECD0C8018A199B095C01AA0CBB1C8A0D29
S11306809B1D99230CF401965C01B594A794A60EC6
S1130690B71EC701B601A30192010CD12A0D3B1D5F
S11306A02536310514F024E630E0C9018C392FEFEA
S11306B0920714F48CE99FEF99233CF4682F6C594A
S11306C021E041E0892D19DD07C021E041E0692DD9
S11306D0392D381B832F11DD20913C0130913D01D0
S11306E080913E0190913F01820F931F20913A0126
S11306F030913B01820F931F2091380130913901D1
S1130700820F931F2091360130913701820F931F7E
S11307102091340130913501820F931F909333015E
S1130720809332018FEC97E00197F1F700C000004D
S113073058018FCF843309F0FBCDC12CD12C760125
S1130740A12CB12C0F2EF4E12F2E312CF02D0F2ED5
S1130750F0E14F2EF7E25F2E612C712CF02D0F2E5D
S1130760F4E69F2EF02D19DD8C01085D1E40C801B2
S1130770AA2797FDA095BA2FC80ED91EEA1EFB1E04
S1130780C801B10162D0C8018A199B095C01AA0C95
S1130790BB1C8A0D9B1D99230CF401965C01B59436
S11307A0A794A60EB71EC701B601A301920182D079
S11307B02A0D3B1D2536310514F024E630E0C9012D
S11307C08C392FEF920714F48CE99FEF99233CF4B2
S11307D0682F6C5921E041E0892D8FDC07C021E0AE
S11307E041E0692D392D381B832F87DC20913C0192
S11307F030913D0180913E0190913F01820F931F02
S113080020913A0130913B01820F931F20913801CE
S113081030913901820F931F2091360130913701B5
S1130820820F931F2091340130913501820F931F61
S113083090933301809332018FEC97E00197F1F7A5
S113084000C0000058018FCF089597FB072E16F4BF
S1130850009406D077FD08D04ED007FC05D03EF4B6
S1130860909581959F4F0895709561957F4F089558
S1130870A1E21A2EAA1BBB1BFD010DC0AA1FBB1FA0
S1130880EE1FFF1FA217B307E407F50720F0A21B12
S1130890B30BE40BF50B661F771F881F991F1A947F
S11308A069F760957095809590959B01AC01BD01A9
S11308B0CF010895052E97FB16F4009406D057FD3A
S11308C00CD0D6DF07FC09D07EF490958095709506
S11308D061957F4F8F4F9F4F089550954095309568
S11308E021953F4F4F4F5F4F0895B7FF18C017D062
S11308F0821B930B0895AA1BBB1B51E107C0AA1FBF
S1130900BB1FA617B70710F0A61BB70B881F991FAC
S11309105A95A9F780959095BC01CD01089509D009
S1130920A59F900DB49F900DA49F800D911D11243F
S11309300895A29FB001B39FC001A39F01D0B29FAD
S1130940700D811D1124911D08950F931F93CF9352
S1130950DF938C01E0914401F0914501838181FF93
S11309601BC0C0E0D0E005C00995892B11F0CFEF82
S1130970DFEFF80181918F0160914401709145018D
S1130980DB011896ED91FC9119978111EDCF8AE066
S11309900995892B09F402C0CFEFDFEFCE01DF9177
S11309A0CF911F910F910895AEE0B0E0E9EDF4E02E
S11309B095C20D891E8986E08C831A8309838FEF83
S11309C09FE79E838D83CE014996AC016F89788D14
S11309D0CE01019608D0EF81F885E00FF11F108257
S11309E02E96E4E097C2ACE0B0E0E8EFF4E068C231
S11309F07C016B018A01FC0117821682838181FFCD
S1130A00B9C188248394912C8C0E9D1EF701938187
S1130A10F60193FD859193FF81916F01882309F479
S1130A20A5C1853239F493FD859193FF81916F01BE
S1130A30853221F4B70190E0B9D1E8CF512C312CA3
S1130A4020E02032A8F48B3261F028F4803251F097
S1130A50833271F40BC08D3239F0803349F4216054
S1130A6028C02260246025C0286023C0206121C0E2
S1130A7027FD27C0382F30533A3078F426FF06C0BC
S1130A80FAE05F9E300D1124532E13C08AE0389E85
S1130A90300D1124332E20620CC08E3221F426FD39
S1130AA065C1206406C08C3611F4206802C0883603
S1130AB041F4F60193FD859193FF81916F018111BA
S1130AC0C0CF982F9554933018F09052933028F457
S1130AD00C5F1F4FFFE3F9830DC0833631F083377A
S1130AE071F0833509F05AC022C0F80180818983EE
S1130AF00E5F1F4F44244394512C540114C03801F9
S1130B00F2E06F0E711CF801A080B18026FF03C0D3
S1130B10652D70E002C06FEF7FEFC5012C873BD1DC
S1130B202C0183012C856FE7262E222217C0380161
S1130B30F2E06F0E711CF801A080B18026FF03C0A3
S1130B40652D70E002C06FEF7FEFC5012C8718D1CF
S1130B502C012C8550E8252E222A830123FC1AC05F
S1130B6005C0B70180E290E021D13A94832D90E052
S1130B7048165906B0F30EC0F50127FC859127FEEF
S1130B8081915F01B70190E011D131103A94F1E005
S1130B904F1A51084114510479F7E5C0843611F015
S1130BA0893639F5F80127FF07C060817181828198
S1130BB093810C5F1F4F08C060817181882777FD86
S1130BC08095982F0E5F1F4F4FE6B42EB22297FFE9
S1130BD009C090958095709561957F4F8F4F9F4F79
S1130BE0F0E8BF2A2AE030E0A4010CD1A82EA8180E
S1130BF042C0853731F43FEEB32EB2222AE030E012
S1130C0024C099EFB92EB2228F36B9F020F488357A
S1130C1009F0ACC00DC0803721F0883709F0A6C0B8
S1130C2002C020E1B22AB4FE0BC084E0B82A08C096
S1130C3024FF09C0E6E0BE2A06C028E030E005C073
S1130C4020E130E002C020E132E0F801B7FE07C045
S1130C5060817181828193810C5F1F4F06C0608126
S1130C60718180E090E00E5F1F4FA401CBD0A82ECD
S1130C70A818FFE7BF22B6FE0BC02B2D2E7FA514AC
S1130C8050F4B4FE0AC0B2FC08C02B2D2E7E05C061
S1130C907A2C2B2D03C07A2C01C0752C24FF0DC097
S1130CA0FE01EA0DF11D8081803311F4297E09C013
S1130CB022FF06C07394739404C0822F867809F0CF
S1130CC0739423FD13C020FF0EC05A2C731458F4E0
S1130CD0530C5718732C07C0B70180E290E02C879F
S1130CE065D073942C857314B8F304C0731410F492
S1130CF0371801C0312C24FF11C0B70180E390E004
S1130D002C8754D02C8522FF1CC021FF03C088E50A
S1130D1090E002C088E790E0B7010CC0822F86788B
S1130D2081F021FD02C080E201C08BE227FD8DE24B
S1130D30B70190E03BD005C0B70180E390E036D026
S1130D405A94A514C8F3AA94F401EA0DF11DB7014D
S1130D50808190E02BD0A110F6CF05C0B70180E2CE
S1130D6090E024D03A943110F9CF50CEF701268187
S1130D70378102C02FEF3FEFC9012C96E2E1BCC0DE
S1130D80FC010590615070400110D8F78095909552
S1130D908E0F9F1F0895FC01615070400190011057
S1130DA0D8F7809590958E0F9F1F08950F931F93EA
S1130DB0CF93DF938C01EB018B8181FD03C00FEF97
S1130DC01FEF1AC082FF0DC02E813F818C819D814F
S1130DD02817390764F4E881F9810193F983E883DA
S1130DE006C0E885F985802F0995892B41F78E8106
S1130DF09F8101969F838E83C801DF91CF911F91BC
S1130E000F910895FA01AA27283051F1203181F178
S1130E10E8946F936E7F6E5F7F4F8F4F9F4FAF4FFE
S1130E20B1E03ED0B4E03CD0670F781F891F9A1F11
S1130E30A11D680F791F8A1F911DA11D6A0F711DC5
S1130E40811D911DA11D20D009F468943F912AE0D1
S1130E50269F11243019305D3193DEF6CF010895B9
S1130E60462F4770405D4193B3E00FD0C9F7F6CFEA
S1130E70462F4F70405D4A3318F0495D31FD4052B2
S1130E80419302D0A9F7EACFB4E0A6959795879548
S1130E9077956795BA95C9F7009761057105089527
S1130EA09B01AC010A2E06945795479537952795D3
S1130EB0BA95C9F7620F731F841F951FA01D08956B
S1130EC02F923F924F925F926F927F928F929F9256
S1130ED0AF92BF92CF92DF92EF92FF920F931F9344
S1130EE0CF93DF93CDB7DEB7CA1BDB0B0FB6F894F5
S1130EF0DEBF0FBECDBF09942A88398848885F8435
S1130F006E847D848C849B84AA84B984C884DF80A5
S1130F10EE80FD800C811B81AA81B981CE0FD11D89
S1130F200FB6F894DEBF0FBECDBFED010895F8945F
S1050F30FFCFED
S1130F32000000010000000000005F00000000004B
S1130F42000200000000500000000000256420257B
S1130F5264202564202564202564202564202564DA
S1050F62000089
S9030000FC
